{
  "_format": "hh3-artifact-1",
  "contractName": "ViewFacet",
  "sourceName": "contracts/diamond/facets/ViewFacet.sol",
  "abi": [
    {
      "inputs": [],
      "name": "AlreadyEmitted",
      "type": "error"
    },
    {
      "inputs": [],
      "name": "AlreadyPublic",
      "type": "error"
    },
    {
      "inputs": [],
      "name": "AlreadyVoted",
      "type": "error"
    },
    {
      "inputs": [],
      "name": "AnonDisabled",
      "type": "error"
    },
    {
      "inputs": [],
      "name": "AnonIdRequired",
      "type": "error"
    },
    {
      "inputs": [],
      "name": "BadOption",
      "type": "error"
    },
    {
      "inputs": [],
      "name": "BadWeight",
      "type": "error"
    },
    {
      "inputs": [],
      "name": "Delegated",
      "type": "error"
    },
    {
      "inputs": [],
      "name": "DelegationLoop",
      "type": "error"
    },
    {
      "inputs": [],
      "name": "Inactive",
      "type": "error"
    },
    {
      "inputs": [],
      "name": "InvalidAlgorithm",
      "type": "error"
    },
    {
      "inputs": [],
      "name": "InvalidWindow",
      "type": "error"
    },
    {
      "inputs": [],
      "name": "NoConfirmedVote",
      "type": "error"
    },
    {
      "inputs": [],
      "name": "NoVote",
      "type": "error"
    },
    {
      "inputs": [],
      "name": "NoWeight",
      "type": "error"
    },
    {
      "inputs": [],
      "name": "NotAuthorized",
      "type": "error"
    },
    {
      "inputs": [],
      "name": "NotOwner",
      "type": "error"
    },
    {
      "inputs": [],
      "name": "NothingPending",
      "type": "error"
    },
    {
      "inputs": [],
      "name": "OptionMismatch",
      "type": "error"
    },
    {
      "inputs": [],
      "name": "OptionsRequired",
      "type": "error"
    },
    {
      "inputs": [],
      "name": "PriceUnset",
      "type": "error"
    },
    {
      "inputs": [],
      "name": "PurchasesOff",
      "type": "error"
    },
    {
      "inputs": [],
      "name": "Reentrancy",
      "type": "error"
    },
    {
      "inputs": [],
      "name": "RefundFailed",
      "type": "error"
    },
    {
      "inputs": [],
      "name": "SelfDelegation",
      "type": "error"
    },
    {
      "inputs": [],
      "name": "SessionMissing",
      "type": "error"
    },
    {
      "inputs": [],
      "name": "StrategyNotSet",
      "type": "error"
    },
    {
      "inputs": [],
      "name": "ValueTooLow",
      "type": "error"
    },
    {
      "inputs": [],
      "name": "ZeroOwner",
      "type": "error"
    },
    {
      "inputs": [
        {
          "internalType": "uint256",
          "name": "sessionId",
          "type": "uint256"
        },
        {
          "internalType": "address",
          "name": "viewer",
          "type": "address"
        }
      ],
      "name": "canSeeResults",
      "outputs": [
        {
          "internalType": "bool",
          "name": "",
          "type": "bool"
        }
      ],
      "stateMutability": "view",
      "type": "function"
    },
    {
      "inputs": [
        {
          "internalType": "uint256",
          "name": "sessionId",
          "type": "uint256"
        }
      ],
      "name": "getOptionTotals",
      "outputs": [
        {
          "internalType": "uint256[]",
          "name": "totals",
          "type": "uint256[]"
        }
      ],
      "stateMutability": "view",
      "type": "function"
    },
    {
      "inputs": [
        {
          "internalType": "uint256",
          "name": "sessionId",
          "type": "uint256"
        }
      ],
      "name": "getOptions",
      "outputs": [
        {
          "components": [
            {
              "internalType": "string",
              "name": "name",
              "type": "string"
            },
            {
              "internalType": "uint256",
              "name": "weight",
              "type": "uint256"
            }
          ],
          "internalType": "struct Option[]",
          "name": "opts",
          "type": "tuple[]"
        }
      ],
      "stateMutability": "view",
      "type": "function"
    },
    {
      "inputs": [
        {
          "internalType": "uint256",
          "name": "sessionId",
          "type": "uint256"
        }
      ],
      "name": "getSessionMeta",
      "outputs": [
        {
          "internalType": "string",
          "name": "name",
          "type": "string"
        },
        {
          "internalType": "uint256",
          "name": "startTime",
          "type": "uint256"
        },
        {
          "internalType": "uint256",
          "name": "endTime",
          "type": "uint256"
        },
        {
          "internalType": "uint256",
          "name": "revealTime",
          "type": "uint256"
        },
        {
          "internalType": "enum Algorithm",
          "name": "algorithm",
          "type": "uint8"
        },
        {
          "internalType": "bool",
          "name": "allowAnonymous",
          "type": "bool"
        },
        {
          "internalType": "bool",
          "name": "allowMultiVoteWithEth",
          "type": "bool"
        },
        {
          "internalType": "bool",
          "name": "concealResults",
          "type": "bool"
        },
        {
          "internalType": "bool",
          "name": "revealed",
          "type": "bool"
        },
        {
          "internalType": "uint256",
          "name": "optionCount",
          "type": "uint256"
        },
        {
          "internalType": "uint256",
          "name": "pricePerWeight",
          "type": "uint256"
        },
        {
          "internalType": "uint256",
          "name": "defaultBaseWeight",
          "type": "uint256"
        }
      ],
      "stateMutability": "view",
      "type": "function"
    },
    {
      "inputs": [
        {
          "internalType": "uint256",
          "name": "sessionId",
          "type": "uint256"
        },
        {
          "internalType": "address",
          "name": "voter",
          "type": "address"
        }
      ],
      "name": "getVoteAllocations",
      "outputs": [
        {
          "internalType": "enum VoteStatus",
          "name": "status",
          "type": "uint8"
        },
        {
          "components": [
            {
              "internalType": "uint256",
              "name": "optionId",
              "type": "uint256"
            },
            {
              "internalType": "uint256",
              "name": "weight",
              "type": "uint256"
            }
          ],
          "internalType": "struct Allocation[]",
          "name": "allocations",
          "type": "tuple[]"
        },
        {
          "internalType": "bool",
          "name": "anonymousVote",
          "type": "bool"
        },
        {
          "internalType": "bytes32",
          "name": "anonId",
          "type": "bytes32"
        },
        {
          "internalType": "uint256",
          "name": "usedWeight",
          "type": "uint256"
        }
      ],
      "stateMutability": "view",
      "type": "function"
    },
    {
      "inputs": [
        {
          "internalType": "uint256",
          "name": "sessionId",
          "type": "uint256"
        },
        {
          "internalType": "address",
          "name": "voter",
          "type": "address"
        }
      ],
      "name": "getVoterState",
      "outputs": [
        {
          "internalType": "uint256",
          "name": "baseWeight",
          "type": "uint256"
        },
        {
          "internalType": "uint256",
          "name": "purchasedWeight",
          "type": "uint256"
        },
        {
          "internalType": "address",
          "name": "delegate",
          "type": "address"
        },
        {
          "internalType": "bool",
          "name": "delegated",
          "type": "bool"
        },
        {
          "internalType": "uint256",
          "name": "availableWeight",
          "type": "uint256"
        },
        {
          "internalType": "uint256",
          "name": "receivedDelegatedWeight",
          "type": "uint256"
        }
      ],
      "stateMutability": "view",
      "type": "function"
    },
    {
      "inputs": [
        {
          "internalType": "uint256",
          "name": "sessionId",
          "type": "uint256"
        }
      ],
      "name": "getWinners",
      "outputs": [
        {
          "internalType": "uint256[]",
          "name": "winners",
          "type": "uint256[]"
        }
      ],
      "stateMutability": "view",
      "type": "function"
    },
    {
      "inputs": [
        {
          "internalType": "uint256",
          "name": "sessionId",
          "type": "uint256"
        },
        {
          "internalType": "address",
          "name": "delegatee",
          "type": "address"
        }
      ],
      "name": "listDelegators",
      "outputs": [
        {
          "internalType": "address[]",
          "name": "delegators",
          "type": "address[]"
        }
      ],
      "stateMutability": "view",
      "type": "function"
    },
    {
      "inputs": [],
      "name": "listSessions",
      "outputs": [
        {
          "internalType": "uint256[]",
          "name": "ids",
          "type": "uint256[]"
        }
      ],
      "stateMutability": "view",
      "type": "function"
    },
    {
      "inputs": [
        {
          "internalType": "uint256",
          "name": "sessionId",
          "type": "uint256"
        }
      ],
      "name": "listVoters",
      "outputs": [
        {
          "internalType": "address[]",
          "name": "voters",
          "type": "address[]"
        }
      ],
      "stateMutability": "view",
      "type": "function"
    }
  ],
  "bytecode": "0x60808060405234601557611210908161001a8239f35b5f80fdfe6080806040526004361015610012575f80fd5b5f3560e01c90816325d7c39114610c3d575080633d47764414610b395780634b12311c14610a6b5780635598e66b14610890578063642f123f146107fe5780636b1426a4146106de5780638915b3fb146105415780638e1a7ec81461051c578063da0786fa146103565763de3cc9c51461008a575f80fd5b34610352576100a261009b36610d74565b9190611098565b3373ffffffffffffffffffffffffffffffffffffffff8316141591908280610341575b6103195773ffffffffffffffffffffffffffffffffffffffff600b92165f520160205260405f209081549160ff8084169360081c1680928193610311575b501561023857505f80604051602061011b8183610e30565b5f82527fffffffffffffffffffffffffffffffffffffffffffffffffffffffffffffffe0015f5b8181106101e8575050915b6040519360a085019560038110156101bb57855260a060208601528351809652602060c0860194015f965b80881061019957505084955015156040850152606084015260808301520390f35b9094602060406001928289518051835201518382015201960197019690610178565b7f4e487b71000000000000000000000000000000000000000000000000000000005f52602160045260245ffd5b6020906040516101f781610e14565b5f81525f8382015282828601015201610142565b7f4e487b71000000000000000000000000000000000000000000000000000000005f52604160045260245ffd5b600181015490600360028201549101805461025281610fae565b916102606040519384610e30565b8183527fffffffffffffffffffffffffffffffffffffffffffffffffffffffffffffffe061028d83610fae565b015f5b8181106102ee5750505f5b8281106102ab575050509161014d565b806102b8600192846111c1565b5082604051916102c783610e14565b80548352015460208201526102dc8287611057565b526102e78186611057565b500161029b565b6020906040516102fd81610e14565b5f81525f8382015282828801015201610290565b90505f610103565b7fea8e4eb5000000000000000000000000000000000000000000000000000000005f5260045ffd5b5061034c33826110f7565b156100c5565b5f80fd5b346103525761036761009b36610d74565b61037133826110f7565b15806104fc575b61031957600881018054600a90920191905f805b838110610472575061039d90610fc6565b925f905f5b8481106103bb57604051806103b78882610dc5565b0390f35b8073ffffffffffffffffffffffffffffffffffffffff806103de60019488611015565b90549060031b1c16165f5282602052600360405f20015460ff8116908161044c575b5061040c575b016103a2565b73ffffffffffffffffffffffffffffffffffffffff61042b8287611015565b90549060031b1c1661044661043f8661106b565b9589611057565b52610406565b905073ffffffffffffffffffffffffffffffffffffffff808a169160081c161489610400565b73ffffffffffffffffffffffffffffffffffffffff806104928386611015565b90549060031b1c16165f5284602052600360405f20015460ff811690816104d6575b506104c2575b60010161038c565b906104ce60019161106b565b9190506104ba565b905073ffffffffffffffffffffffffffffffffffffffff8088169160081c1614876104b4565b5073ffffffffffffffffffffffffffffffffffffffff8216331415610378565b3461035257602061053761053261009b36610d74565b6110f7565b6040519015158152f35b346103525760207ffffffffffffffffffffffffffffffffffffffffffffffffffffffffffffffffc36011261035257600761057d600435611098565b01805461058981610fae565b916105976040519384610e30565b8183527fffffffffffffffffffffffffffffffffffffffffffffffffffffffffffffffe06105c483610fae565b015f5b8181106106ba5750505f5b82811061067057836040518091602082016020835281518091526040830190602060408260051b8601019301915f905b82821061061157505050500390f35b91936020817fffffffffffffffffffffffffffffffffffffffffffffffffffffffffffffffc06001949698839403018552875190828061065a8451604085526040850190610d31565b9301519101529601920192018594939192610602565b8061067d600192846111c1565b50826040519161068c83610e14565b61069581610e71565b8352015460208201526106a88287611057565b526106b38186611057565b50016105d2565b6020906040516106c981610e14565b606081525f83820152828288010152016105c7565b346103525760207ffffffffffffffffffffffffffffffffffffffffffffffffffffffffffffffffc36011261035257610718600435611098565b61072233826110f7565b156103195760078101545f91600c01825b8281106107ce57505f5f5b83811061079f575061074f90610fc6565b925f915f5b84811061076957604051806103b78882610cf8565b806001915f52826020528360405f205414610785575b01610754565b806107996107928761106b565b9689611057565b5261077f565b805f52826020528460405f2054146107ba575b60010161073e565b906107c660019161106b565b9190506107b2565b805f52816020528360405f2054116107e9575b600101610733565b5f8181526020839052604090205493506107e1565b346103525760207ffffffffffffffffffffffffffffffffffffffffffffffffffffffffffffffffc36011261035257610838600435611098565b61084233826110f7565b1561031957600781015461085581610fc6565b91600c015f5b82811061087057604051806103b78682610cf8565b806001915f528260205260405f20546108898287611057565b520161085b565b346103525760207ffffffffffffffffffffffffffffffffffffffffffffffffffffffffffffffffc360112610352576108ca600435611098565b6108d433826110f7565b1561031957600881018054916108e983610fc6565b925f92600b5f9301925b82811061095257858561090581610fc6565b915f5b82811061091d57604051806103b78682610dc5565b8073ffffffffffffffffffffffffffffffffffffffff61093f60019385611057565b511661094b8287611057565b5201610908565b73ffffffffffffffffffffffffffffffffffffffff6109718284611015565b90549060031b1c1673ffffffffffffffffffffffffffffffffffffffff81165f528460205260405f205460ff811660038110156101bb576109b7575b50506001016108f3565b60081c60ff1615610a6657505f5b5f5f5b878110610a16575b509060019291156109e4575b8192506109ad565b73ffffffffffffffffffffffffffffffffffffffff610a0c610a058961106b565b988a611057565b91169052876109dc565b73ffffffffffffffffffffffffffffffffffffffff610a35828b611057565b511673ffffffffffffffffffffffffffffffffffffffff841614610a5b576001016109c8565b5060019050806109d0565b6109c5565b346103525760c0610a9a73ffffffffffffffffffffffffffffffffffffffff610a9336610d74565b9290611098565b91165f52600a810160205260405f209060038201549060ff8260b01c165f14610b2157508154915b60ff6002600183015492015492610ae284610add8588610f74565b610f74565b92604051958652602086015273ffffffffffffffffffffffffffffffffffffffff8160081c1660408601521615156060840152608083015260a0820152f35b6006015480610b34575060015b91610ac2565b610b2e565b346103525760207ffffffffffffffffffffffffffffffffffffffffffffffffffffffffffffffffc36011261035257610b73600435611098565b610b7c81610e71565b906001810154600282015460038301549260048101549360ff85166007830154916006600585015494015480155f14610c3757506001945b610bcb604051996101808b526101808b0190610d31565b9660208a01526040890152606088015260028110156101bb57869560ff916080880152818160081c16151560a0880152818160101c16151560c0880152818160181c16151560e088015260201c1615156101008601526101208501526101408401526101608301520390f35b94610bb4565b34610352575f7ffffffffffffffffffffffffffffffffffffffffffffffffffffffffffffffffc360112610352577f61805b3107a208276fa420f24ca5a317def02ce0835883d2cdea73d07e4b356e5480825260208201907f61805b3107a208276fa420f24ca5a317def02ce0835883d2cdea73d07e4b356e5f5260205f20905f5b818110610ce2576103b785610cd681870382610e30565b60405191829182610cf8565b8254845260209093019260019283019201610cbf565b60206040818301928281528451809452019201905f5b818110610d1b5750505090565b8251845260209384019390920191600101610d0e565b907fffffffffffffffffffffffffffffffffffffffffffffffffffffffffffffffe0601f602080948051918291828752018686015e5f8582860101520116010190565b7ffffffffffffffffffffffffffffffffffffffffffffffffffffffffffffffffc6040910112610352576004359060243573ffffffffffffffffffffffffffffffffffffffff811681036103525790565b60206040818301928281528451809452019201905f5b818110610de85750505090565b825173ffffffffffffffffffffffffffffffffffffffff16845260209384019390920191600101610ddb565b6040810190811067ffffffffffffffff82111761020b57604052565b90601f7fffffffffffffffffffffffffffffffffffffffffffffffffffffffffffffffe0910116810190811067ffffffffffffffff82111761020b57604052565b90604051915f8154908160011c9260018316928315610f6a575b602085108414610f3d578487528693908115610efd5750600114610eb9575b50610eb792500383610e30565b565b90505f9291925260205f20905f915b818310610ee1575050906020610eb7928201015f610eaa565b6020919350806001915483858901015201910190918492610ec8565b60209350610eb79592507fffffffffffffffffffffffffffffffffffffffffffffffffffffffffffffff0091501682840152151560051b8201015f610eaa565b7f4e487b71000000000000000000000000000000000000000000000000000000005f52602260045260245ffd5b93607f1693610e8b565b91908201809211610f8157565b7f4e487b71000000000000000000000000000000000000000000000000000000005f52601160045260245ffd5b67ffffffffffffffff811161020b5760051b60200190565b90610fd082610fae565b610fdd6040519182610e30565b8281527fffffffffffffffffffffffffffffffffffffffffffffffffffffffffffffffe061100b8294610fae565b0190602036910137565b805482101561102a575f5260205f2001905f90565b7f4e487b71000000000000000000000000000000000000000000000000000000005f52603260045260245ffd5b805182101561102a5760209160051b010190565b7fffffffffffffffffffffffffffffffffffffffffffffffffffffffffffffffff8114610f815760010190565b5f527f61805b3107a208276fa420f24ca5a317def02ce0835883d2cdea73d07e4b357060205260405f20906002820154156110cf57565b7f5d8b628d000000000000000000000000000000000000000000000000000000005f5260045ffd5b600481015460ff8160181c16156111b95760201c60ff166111a55760038101544210156111a5576001810154421015806111ac575b156111a55760099073ffffffffffffffffffffffffffffffffffffffff83165f520160205260ff60405f205416908115611164575090565b905073ffffffffffffffffffffffffffffffffffffffff807f61805b3107a208276fa420f24ca5a317def02ce0835883d2cdea73d07e4b356c541691161490565b5050600190565b506002810154421061112c565b505050600190565b805482101561102a575f5260205f209060011b01905f9056fea2646970667358221220fcbb683809a2066b6e2e6f76f541aa0bdf81792bba1b06537093262add49700a64736f6c634300081c0033",
  "linkReferences": {},
  "deployedLinkReferences": {},
  "immutableReferences": {},
  "inputSourceName": "project/contracts/diamond/facets/ViewFacet.sol",
  "buildInfoId": "solc-0_8_28-72670044ffc47656ed1c02f8bb62abf4b82970b3"
}