{
  "contractName": "Ballot",
  "abi": [
    {
      "inputs": [
        {
          "internalType": "bytes32[]",
          "name": "proposalNames",
          "type": "bytes32[]"
        }
      ],
      "stateMutability": "nonpayable",
      "type": "constructor"
    },
    {
      "inputs": [],
      "name": "chairperson",
      "outputs": [
        {
          "internalType": "address",
          "name": "",
          "type": "address"
        }
      ],
      "stateMutability": "view",
      "type": "function",
      "constant": true
    },
    {
      "inputs": [
        {
          "internalType": "uint256",
          "name": "",
          "type": "uint256"
        }
      ],
      "name": "proposals",
      "outputs": [
        {
          "internalType": "bytes32",
          "name": "name",
          "type": "bytes32"
        },
        {
          "internalType": "uint256",
          "name": "voteCount",
          "type": "uint256"
        }
      ],
      "stateMutability": "view",
      "type": "function",
      "constant": true
    },
    {
      "inputs": [
        {
          "internalType": "address",
          "name": "",
          "type": "address"
        }
      ],
      "name": "voters",
      "outputs": [
        {
          "internalType": "uint256",
          "name": "weight",
          "type": "uint256"
        },
        {
          "internalType": "bool",
          "name": "voted",
          "type": "bool"
        },
        {
          "internalType": "address",
          "name": "delegate",
          "type": "address"
        },
        {
          "internalType": "uint256",
          "name": "vote",
          "type": "uint256"
        }
      ],
      "stateMutability": "view",
      "type": "function",
      "constant": true
    },
    {
      "inputs": [
        {
          "internalType": "address",
          "name": "voter",
          "type": "address"
        }
      ],
      "name": "giveRightToVote",
      "outputs": [],
      "stateMutability": "nonpayable",
      "type": "function"
    },
    {
      "inputs": [
        {
          "internalType": "uint256",
          "name": "proposal",
          "type": "uint256"
        }
      ],
      "name": "vote",
      "outputs": [],
      "stateMutability": "nonpayable",
      "type": "function"
    },
    {
      "inputs": [],
      "name": "winningProposal",
      "outputs": [
        {
          "internalType": "uint256",
          "name": "winner",
          "type": "uint256"
        }
      ],
      "stateMutability": "view",
      "type": "function",
      "constant": true
    },
    {
      "inputs": [],
      "name": "winnerName",
      "outputs": [
        {
          "internalType": "bytes32",
          "name": "",
          "type": "bytes32"
        }
      ],
      "stateMutability": "view",
      "type": "function",
      "constant": true
    }
  ],
  "bytecode": "0x60806040523480156200001157600080fd5b5060405162000ffc38038062000ffc833981810160405281019062000037919062000342565b336000806101000a81548173ffffffffffffffffffffffffffffffffffffffff021916908373ffffffffffffffffffffffffffffffffffffffff16021790555060018060008060009054906101000a900473ffffffffffffffffffffffffffffffffffffffff1673ffffffffffffffffffffffffffffffffffffffff1673ffffffffffffffffffffffffffffffffffffffff1681526020019081526020016000206000018190555060005b81518110156200017657600260405180604001604052808484815181106200010f576200010e62000393565b5b60200260200101518152602001600081525090806001815401808255809150506001900390600052602060002090600202016000909190919091506000820151816000015560208201518160010155505080806200016d90620003fb565b915050620000e2565b505062000448565b6000604051905090565b600080fd5b600080fd5b600080fd5b6000601f19601f8301169050919050565b7f4e487b7100000000000000000000000000000000000000000000000000000000600052604160045260246000fd5b620001e28262000197565b810181811067ffffffffffffffff82111715620002045762000203620001a8565b5b80604052505050565b6000620002196200017e565b9050620002278282620001d7565b919050565b600067ffffffffffffffff8211156200024a5762000249620001a8565b5b602082029050602081019050919050565b600080fd5b6000819050919050565b620002758162000260565b81146200028157600080fd5b50565b60008151905062000295816200026a565b92915050565b6000620002b2620002ac846200022c565b6200020d565b90508083825260208201905060208402830185811115620002d857620002d76200025b565b5b835b81811015620003055780620002f0888262000284565b845260208401935050602081019050620002da565b5050509392505050565b600082601f83011262000327576200032662000192565b5b8151620003398482602086016200029b565b91505092915050565b6000602082840312156200035b576200035a62000188565b5b600082015167ffffffffffffffff8111156200037c576200037b6200018d565b5b6200038a848285016200030f565b91505092915050565b7f4e487b7100000000000000000000000000000000000000000000000000000000600052603260045260246000fd5b7f4e487b7100000000000000000000000000000000000000000000000000000000600052601160045260246000fd5b6000819050919050565b60006200040882620003f1565b91507fffffffffffffffffffffffffffffffffffffffffffffffffffffffffffffffff82036200043d576200043c620003c2565b5b600182019050919050565b610ba480620004586000396000f3fe608060405234801561001057600080fd5b506004361061007d5760003560e01c8063609ff1bd1161005b578063609ff1bd146100ed5780639e7b8d611461010b578063a3ec138d14610127578063e2ba53f01461015a5761007d565b80630121b93f14610082578063013cf08b1461009e5780632e4176cf146100cf575b600080fd5b61009c6004803603810190610097919061069e565b610178565b005b6100b860048036038101906100b3919061069e565b610305565b6040516100c69291906106f3565b60405180910390f35b6100d7610339565b6040516100e4919061075d565b60405180910390f35b6100f561035d565b6040516101029190610778565b60405180910390f35b610125600480360381019061012091906107bf565b6103e5565b005b610141600480360381019061013c91906107bf565b6105d2565b6040516101519493929190610807565b60405180910390f35b61016261062f565b60405161016f919061084c565b60405180910390f35b6000600160003373ffffffffffffffffffffffffffffffffffffffff1673ffffffffffffffffffffffffffffffffffffffff16815260200190815260200160002090506000816000015411610202576040517f08c379a00000000000000000000000000000000000000000000000000000000081526004016101f9906108c4565b60405180910390fd5b8060010160009054906101000a900460ff1615610254576040517f08c379a000000000000000000000000000000000000000000000000000000000815260040161024b90610930565b60405180910390fd5b600280549050821061029b576040517f08c379a00000000000000000000000000000000000000000000000000000000081526004016102929061099c565b60405180910390fd5b60018160010160006101000a81548160ff0219169083151502179055508181600201819055508060000154600283815481106102da576102d96109bc565b5b906000526020600020906002020160010160008282546102fa9190610a1a565b925050819055505050565b6002818154811061031557600080fd5b90600052602060002090600202016000915090508060000154908060010154905082565b60008054906101000a900473ffffffffffffffffffffffffffffffffffffffff1681565b6000806000905060005b6002805490508110156103e0578160028281548110610389576103886109bc565b5b90600052602060002090600202016001015411156103cd57600281815481106103b5576103b46109bc565b5b90600052602060002090600202016001015491508092505b80806103d890610a4e565b915050610367565b505090565b60008054906101000a900473ffffffffffffffffffffffffffffffffffffffff1673ffffffffffffffffffffffffffffffffffffffff163373ffffffffffffffffffffffffffffffffffffffff1614610473576040517f08c379a000000000000000000000000000000000000000000000000000000000815260040161046a90610ae2565b60405180910390fd5b600160008273ffffffffffffffffffffffffffffffffffffffff1673ffffffffffffffffffffffffffffffffffffffff16815260200190815260200160002060010160009054906101000a900460ff1615610503576040517f08c379a00000000000000000000000000000000000000000000000000000000081526004016104fa90610930565b60405180910390fd5b6000600160008373ffffffffffffffffffffffffffffffffffffffff1673ffffffffffffffffffffffffffffffffffffffff1681526020019081526020016000206000015414610588576040517f08c379a000000000000000000000000000000000000000000000000000000000815260040161057f90610b4e565b60405180910390fd5b60018060008373ffffffffffffffffffffffffffffffffffffffff1673ffffffffffffffffffffffffffffffffffffffff1681526020019081526020016000206000018190555050565b60016020528060005260406000206000915090508060000154908060010160009054906101000a900460ff16908060010160019054906101000a900473ffffffffffffffffffffffffffffffffffffffff16908060020154905084565b6000600261063b61035d565b8154811061064c5761064b6109bc565b5b906000526020600020906002020160000154905090565b600080fd5b6000819050919050565b61067b81610668565b811461068657600080fd5b50565b60008135905061069881610672565b92915050565b6000602082840312156106b4576106b3610663565b5b60006106c284828501610689565b91505092915050565b6000819050919050565b6106de816106cb565b82525050565b6106ed81610668565b82525050565b600060408201905061070860008301856106d5565b61071560208301846106e4565b9392505050565b600073ffffffffffffffffffffffffffffffffffffffff82169050919050565b60006107478261071c565b9050919050565b6107578161073c565b82525050565b6000602082019050610772600083018461074e565b92915050565b600060208201905061078d60008301846106e4565b92915050565b61079c8161073c565b81146107a757600080fd5b50565b6000813590506107b981610793565b92915050565b6000602082840312156107d5576107d4610663565b5b60006107e3848285016107aa565b91505092915050565b60008115159050919050565b610801816107ec565b82525050565b600060808201905061081c60008301876106e4565b61082960208301866107f8565b610836604083018561074e565b61084360608301846106e4565b95945050505050565b600060208201905061086160008301846106d5565b92915050565b600082825260208201905092915050565b7f4e6f20726967687420746f20766f746500000000000000000000000000000000600082015250565b60006108ae601083610867565b91506108b982610878565b602082019050919050565b600060208201905081810360008301526108dd816108a1565b9050919050565b7f416c726561647920766f74656400000000000000000000000000000000000000600082015250565b600061091a600d83610867565b9150610925826108e4565b602082019050919050565b600060208201905081810360008301526109498161090d565b9050919050565b7f496e76616c69642070726f706f73616c00000000000000000000000000000000600082015250565b6000610986601083610867565b915061099182610950565b602082019050919050565b600060208201905081810360008301526109b581610979565b9050919050565b7f4e487b7100000000000000000000000000000000000000000000000000000000600052603260045260246000fd5b7f4e487b7100000000000000000000000000000000000000000000000000000000600052601160045260246000fd5b6000610a2582610668565b9150610a3083610668565b9250828201905080821115610a4857610a476109eb565b5b92915050565b6000610a5982610668565b91507fffffffffffffffffffffffffffffffffffffffffffffffffffffffffffffffff8203610a8b57610a8a6109eb565b5b600182019050919050565b7f4e6f74206368616972706572736f6e0000000000000000000000000000000000600082015250565b6000610acc600f83610867565b9150610ad782610a96565b602082019050919050565b60006020820190508181036000830152610afb81610abf565b9050919050565b7f416c726561647920686173207269676874000000000000000000000000000000600082015250565b6000610b38601183610867565b9150610b4382610b02565b602082019050919050565b60006020820190508181036000830152610b6781610b2b565b905091905056fea26469706673582212200b93b8934506e686e425e09480900d590d730e9051f0b8c7bfc9970a14af194764736f6c63430008130033",
  "immutableReferences": {},
  "source": "// SPDX-License-Identifier: MIT\npragma solidity ^0.8.19;\n\ncontract Ballot {\n    struct Voter {\n        uint weight;\n        bool voted;\n        address delegate;\n        uint vote;\n    }\n\n    struct Proposal {\n        bytes32 name;\n        uint voteCount;\n    }\n\n    address public chairperson;\n\n    mapping(address => Voter) public voters;\n\n    Proposal[] public proposals;\n\n    constructor(bytes32[] memory proposalNames) {\n        chairperson = msg.sender;\n        voters[chairperson].weight = 1;\n\n        for (uint i = 0; i < proposalNames.length; i++) {\n            proposals.push(Proposal({\n                name: proposalNames[i],\n                voteCount: 0\n            }));\n        }\n    }\n\n    function giveRightToVote(address voter) external {\n        require(msg.sender == chairperson, \"Not chairperson\");\n        require(!voters[voter].voted, \"Already voted\");\n        require(voters[voter].weight == 0, \"Already has right\");\n\n        voters[voter].weight = 1;\n    }\n\n    function vote(uint proposal) external {\n        Voter storage sender = voters[msg.sender];\n\n        require(sender.weight > 0, \"No right to vote\");\n        require(!sender.voted, \"Already voted\");\n        require(proposal < proposals.length, \"Invalid proposal\");\n\n        sender.voted = true;\n        sender.vote = proposal;\n\n        proposals[proposal].voteCount += sender.weight;\n    }\n\n    function winningProposal() public view returns (uint winner) {\n        uint winningVoteCount = 0;\n\n        for (uint p = 0; p < proposals.length; p++) {\n            if (proposals[p].voteCount > winningVoteCount) {\n                winningVoteCount = proposals[p].voteCount;\n                winner = p;\n            }\n        }\n    }\n\n    function winnerName() external view returns (bytes32) {\n        return proposals[winningProposal()].name;\n    }\n}\n",
  "sourcePath": "/Users/sergio/repos/VCD/contracts/Ballot.sol",
  "compiler": {
    "name": "solc",
    "version": "0.8.19+commit.7dd6d404.Emscripten.clang"
  },
  "schemaVersion": "3.4.16",
  "updatedAt": "2025-12-03T08:53:18.130Z",
  "networkType": "ethereum",
  "devdoc": {
    "kind": "dev",
    "methods": {},
    "version": 1
  },
  "userdoc": {
    "kind": "user",
    "methods": {},
    "version": 1
  }
}