{
  "contractName": "Ballot",
  "abi": [
    {
      "inputs": [
        {
          "internalType": "bytes32[]",
          "name": "proposalNames",
          "type": "bytes32[]"
        },
        {
          "internalType": "uint256",
          "name": "_durationSeconds",
          "type": "uint256"
        }
      ],
      "stateMutability": "nonpayable",
      "type": "constructor"
    },
    {
      "anonymous": false,
      "inputs": [
        {
          "indexed": true,
          "internalType": "address",
          "name": "from",
          "type": "address"
        },
        {
          "indexed": true,
          "internalType": "address",
          "name": "to",
          "type": "address"
        }
      ],
      "name": "Delegated",
      "type": "event"
    },
    {
      "anonymous": false,
      "inputs": [
        {
          "indexed": true,
          "internalType": "address",
          "name": "chairperson",
          "type": "address"
        },
        {
          "indexed": true,
          "internalType": "address",
          "name": "voter",
          "type": "address"
        }
      ],
      "name": "RightGiven",
      "type": "event"
    },
    {
      "anonymous": false,
      "inputs": [
        {
          "indexed": true,
          "internalType": "address",
          "name": "voter",
          "type": "address"
        },
        {
          "indexed": true,
          "internalType": "uint256",
          "name": "proposal",
          "type": "uint256"
        },
        {
          "indexed": false,
          "internalType": "uint256",
          "name": "weight",
          "type": "uint256"
        }
      ],
      "name": "VoteCast",
      "type": "event"
    },
    {
      "inputs": [],
      "name": "chairperson",
      "outputs": [
        {
          "internalType": "address",
          "name": "",
          "type": "address"
        }
      ],
      "stateMutability": "view",
      "type": "function",
      "constant": true
    },
    {
      "inputs": [],
      "name": "deadline",
      "outputs": [
        {
          "internalType": "uint256",
          "name": "",
          "type": "uint256"
        }
      ],
      "stateMutability": "view",
      "type": "function",
      "constant": true
    },
    {
      "inputs": [
        {
          "internalType": "uint256",
          "name": "",
          "type": "uint256"
        }
      ],
      "name": "proposals",
      "outputs": [
        {
          "internalType": "bytes32",
          "name": "name",
          "type": "bytes32"
        },
        {
          "internalType": "uint256",
          "name": "voteCount",
          "type": "uint256"
        }
      ],
      "stateMutability": "view",
      "type": "function",
      "constant": true
    },
    {
      "inputs": [
        {
          "internalType": "address",
          "name": "",
          "type": "address"
        }
      ],
      "name": "voters",
      "outputs": [
        {
          "internalType": "uint256",
          "name": "weight",
          "type": "uint256"
        },
        {
          "internalType": "bool",
          "name": "voted",
          "type": "bool"
        },
        {
          "internalType": "address",
          "name": "delegate",
          "type": "address"
        },
        {
          "internalType": "uint256",
          "name": "vote",
          "type": "uint256"
        }
      ],
      "stateMutability": "view",
      "type": "function",
      "constant": true
    },
    {
      "inputs": [
        {
          "internalType": "address",
          "name": "voter",
          "type": "address"
        }
      ],
      "name": "giveRightToVote",
      "outputs": [],
      "stateMutability": "nonpayable",
      "type": "function"
    },
    {
      "inputs": [
        {
          "internalType": "address[]",
          "name": "voterAddrs",
          "type": "address[]"
        }
      ],
      "name": "giveRightToMany",
      "outputs": [],
      "stateMutability": "nonpayable",
      "type": "function"
    },
    {
      "inputs": [
        {
          "internalType": "address",
          "name": "to",
          "type": "address"
        }
      ],
      "name": "delegate",
      "outputs": [],
      "stateMutability": "nonpayable",
      "type": "function"
    },
    {
      "inputs": [
        {
          "internalType": "uint256",
          "name": "proposal",
          "type": "uint256"
        }
      ],
      "name": "vote",
      "outputs": [],
      "stateMutability": "nonpayable",
      "type": "function"
    },
    {
      "inputs": [],
      "name": "hasEnded",
      "outputs": [
        {
          "internalType": "bool",
          "name": "",
          "type": "bool"
        }
      ],
      "stateMutability": "view",
      "type": "function",
      "constant": true
    },
    {
      "inputs": [],
      "name": "getWinners",
      "outputs": [
        {
          "internalType": "uint256[]",
          "name": "",
          "type": "uint256[]"
        }
      ],
      "stateMutability": "view",
      "type": "function",
      "constant": true
    },
    {
      "inputs": [],
      "name": "winningProposal",
      "outputs": [
        {
          "internalType": "uint256",
          "name": "winner",
          "type": "uint256"
        }
      ],
      "stateMutability": "view",
      "type": "function",
      "constant": true
    },
    {
      "inputs": [],
      "name": "winnerName",
      "outputs": [
        {
          "internalType": "bytes32",
          "name": "",
          "type": "bytes32"
        }
      ],
      "stateMutability": "view",
      "type": "function",
      "constant": true
    }
  ],
  "bytecode": "0x60806040523480156200001157600080fd5b5060405162001d9d38038062001d9d833981810160405281019062000037919062000393565b336000806101000a81548173ffffffffffffffffffffffffffffffffffffffff021916908373ffffffffffffffffffffffffffffffffffffffff1602179055506001600260008060009054906101000a900473ffffffffffffffffffffffffffffffffffffffff1673ffffffffffffffffffffffffffffffffffffffff1673ffffffffffffffffffffffffffffffffffffffff168152602001908152602001600020600001819055508042620000ee919062000428565b60018190555060005b82518110156200018b576003604051806040016040528085848151811062000124576200012362000463565b5b6020026020010151815260200160008152509080600181540180825580915050600190039060005260206000209060020201600090919091909150600082015181600001556020820151816001015550508080620001829062000492565b915050620000f7565b505050620004df565b6000604051905090565b600080fd5b600080fd5b600080fd5b6000601f19601f8301169050919050565b7f4e487b7100000000000000000000000000000000000000000000000000000000600052604160045260246000fd5b620001f882620001ad565b810181811067ffffffffffffffff821117156200021a5762000219620001be565b5b80604052505050565b60006200022f62000194565b90506200023d8282620001ed565b919050565b600067ffffffffffffffff82111562000260576200025f620001be565b5b602082029050602081019050919050565b600080fd5b6000819050919050565b6200028b8162000276565b81146200029757600080fd5b50565b600081519050620002ab8162000280565b92915050565b6000620002c8620002c28462000242565b62000223565b90508083825260208201905060208402830185811115620002ee57620002ed62000271565b5b835b818110156200031b57806200030688826200029a565b845260208401935050602081019050620002f0565b5050509392505050565b600082601f8301126200033d576200033c620001a8565b5b81516200034f848260208601620002b1565b91505092915050565b6000819050919050565b6200036d8162000358565b81146200037957600080fd5b50565b6000815190506200038d8162000362565b92915050565b60008060408385031215620003ad57620003ac6200019e565b5b600083015167ffffffffffffffff811115620003ce57620003cd620001a3565b5b620003dc8582860162000325565b9250506020620003ef858286016200037c565b9150509250929050565b7f4e487b7100000000000000000000000000000000000000000000000000000000600052601160045260246000fd5b6000620004358262000358565b9150620004428362000358565b92508282019050808211156200045d576200045c620003f9565b5b92915050565b7f4e487b7100000000000000000000000000000000000000000000000000000000600052603260045260246000fd5b60006200049f8262000358565b91507fffffffffffffffffffffffffffffffffffffffffffffffffffffffffffffffff8203620004d457620004d3620003f9565b5b600182019050919050565b6118ae80620004ef6000396000f3fe608060405234801561001057600080fd5b50600436106100b45760003560e01c80639e7b8d61116100715780639e7b8d611461017c578063a3ec138d14610198578063b9ef20ea146101cb578063df15c37e146101e7578063e2ba53f014610205578063ecb70fb714610223576100b4565b80630121b93f146100b9578063013cf08b146100d557806329dcb0cf146101065780632e4176cf146101245780635c19a95c14610142578063609ff1bd1461015e575b600080fd5b6100d360048036038101906100ce919061101c565b610241565b005b6100ef60048036038101906100ea919061101c565b610465565b6040516100fd929190611071565b60405180910390f35b61010e610499565b60405161011b919061109a565b60405180910390f35b61012c61049f565b60405161013991906110f6565b60405180910390f35b61015c6004803603810190610157919061113d565b6104c3565b005b61016661098a565b604051610173919061109a565b60405180910390f35b6101966004803603810190610191919061113d565b6109cd565b005b6101b260048036038101906101ad919061113d565b610a67565b6040516101c29493929190611185565b60405180910390f35b6101e560048036038101906101e0919061122f565b610ac4565b005b6101ef610ba8565b6040516101fc919061133a565b60405180910390f35b61020d610d68565b60405161021a919061135c565b60405180910390f35b61022b610df5565b6040516102389190611377565b60405180910390f35b6001544210610285576040517f08c379a000000000000000000000000000000000000000000000000000000000815260040161027c906113ef565b60405180910390fd5b6000600260003373ffffffffffffffffffffffffffffffffffffffff1673ffffffffffffffffffffffffffffffffffffffff1681526020019081526020016000209050600081600001541161030f576040517f08c379a00000000000000000000000000000000000000000000000000000000081526004016103069061145b565b60405180910390fd5b8060010160009054906101000a900460ff1615610361576040517f08c379a0000000000000000000000000000000000000000000000000000000008152600401610358906114c7565b60405180910390fd5b60038054905082106103a8576040517f08c379a000000000000000000000000000000000000000000000000000000000815260040161039f90611533565b60405180910390fd5b60018160010160006101000a81548160ff0219169083151502179055508181600201819055508060000154600383815481106103e7576103e6611553565b5b9060005260206000209060020201600101600082825461040791906115b1565b92505081905550813373ffffffffffffffffffffffffffffffffffffffff167fb4cfecf70861b7b150d8337780d34fb4cbc2114b5fb1fe51a5c5fca1849f72748360000154604051610459919061109a565b60405180910390a35050565b6003818154811061047557600080fd5b90600052602060002090600202016000915090508060000154908060010154905082565b60015481565b60008054906101000a900473ffffffffffffffffffffffffffffffffffffffff1681565b6001544210610507576040517f08c379a00000000000000000000000000000000000000000000000000000000081526004016104fe906113ef565b60405180910390fd5b6000600260003373ffffffffffffffffffffffffffffffffffffffff1673ffffffffffffffffffffffffffffffffffffffff16815260200190815260200160002090506000816000015411610591576040517f08c379a00000000000000000000000000000000000000000000000000000000081526004016105889061145b565b60405180910390fd5b8060010160009054906101000a900460ff16156105e3576040517f08c379a00000000000000000000000000000000000000000000000000000000081526004016105da906114c7565b60405180910390fd5b3373ffffffffffffffffffffffffffffffffffffffff168273ffffffffffffffffffffffffffffffffffffffff1603610651576040517f08c379a000000000000000000000000000000000000000000000000000000000815260040161064890611631565b60405180910390fd5b5b600073ffffffffffffffffffffffffffffffffffffffff16600260008473ffffffffffffffffffffffffffffffffffffffff1673ffffffffffffffffffffffffffffffffffffffff16815260200190815260200160002060010160019054906101000a900473ffffffffffffffffffffffffffffffffffffffff1673ffffffffffffffffffffffffffffffffffffffff16146107c057600260008373ffffffffffffffffffffffffffffffffffffffff1673ffffffffffffffffffffffffffffffffffffffff16815260200190815260200160002060010160019054906101000a900473ffffffffffffffffffffffffffffffffffffffff1691503373ffffffffffffffffffffffffffffffffffffffff168273ffffffffffffffffffffffffffffffffffffffff16036107bb576040517f08c379a00000000000000000000000000000000000000000000000000000000081526004016107b29061169d565b60405180910390fd5b610652565b6000600260008473ffffffffffffffffffffffffffffffffffffffff1673ffffffffffffffffffffffffffffffffffffffff168152602001908152602001600020905060018160000154101561084b576040517f08c379a000000000000000000000000000000000000000000000000000000000815260040161084290611709565b60405180910390fd5b60018260010160006101000a81548160ff021916908315150217905550828260010160016101000a81548173ffffffffffffffffffffffffffffffffffffffff021916908373ffffffffffffffffffffffffffffffffffffffff1602179055508273ffffffffffffffffffffffffffffffffffffffff163373ffffffffffffffffffffffffffffffffffffffff167f4bc154dd35d6a5cb9206482ecb473cdbf2473006d6bce728b9cc0741bcc59ea260405160405180910390a38060010160009054906101000a900460ff1615610965578160000154600382600201548154811061093957610938611553565b5b9060005260206000209060020201600101600082825461095991906115b1565b92505081905550610985565b816000015481600001600082825461097d91906115b1565b925050819055505b505050565b600080610995610ba8565b905060008151036109aa5760009150506109ca565b806000815181106109be576109bd611553565b5b60200260200101519150505b90565b60008054906101000a900473ffffffffffffffffffffffffffffffffffffffff1673ffffffffffffffffffffffffffffffffffffffff163373ffffffffffffffffffffffffffffffffffffffff1614610a5b576040517f08c379a0000000000000000000000000000000000000000000000000000000008152600401610a5290611775565b60405180910390fd5b610a6481610e02565b50565b60026020528060005260406000206000915090508060000154908060010160009054906101000a900460ff16908060010160019054906101000a900473ffffffffffffffffffffffffffffffffffffffff16908060020154905084565b60008054906101000a900473ffffffffffffffffffffffffffffffffffffffff1673ffffffffffffffffffffffffffffffffffffffff163373ffffffffffffffffffffffffffffffffffffffff1614610b52576040517f08c379a0000000000000000000000000000000000000000000000000000000008152600401610b4990611775565b60405180910390fd5b60005b82829050811015610ba357610b90838383818110610b7657610b75611553565b5b9050602002016020810190610b8b919061113d565b610e02565b8080610b9b90611795565b915050610b55565b505050565b606060008060005b600380549050811015610c3457600060038281548110610bd357610bd2611553565b5b906000526020600020906002020160010154905083811115610bfb5780935060019250610c20565b8381148015610c0a5750600081115b15610c1f57600183610c1c91906115b1565b92505b5b508080610c2c90611795565b915050610bb0565b5060008203610c9057600067ffffffffffffffff811115610c5857610c576117dd565b5b604051908082528060200260200182016040528015610c865781602001602082028036833780820191505090505b5092505050610d65565b60008167ffffffffffffffff811115610cac57610cab6117dd565b5b604051908082528060200260200182016040528015610cda5781602001602082028036833780820191505090505b5090506000805b600380549050811015610d5c578460038281548110610d0357610d02611553565b5b90600052602060002090600202016001015403610d495780838381518110610d2e57610d2d611553565b5b6020026020010181815250508180610d4590611795565b9250505b8080610d5490611795565b915050610ce1565b50819450505050505b90565b600080610d73610ba8565b90506000815103610dad576003600081548110610d9357610d92611553565b5b906000526020600020906002020160000154915050610df2565b600381600081518110610dc357610dc2611553565b5b602002602001015181548110610ddc57610ddb611553565b5b9060005260206000209060020201600001549150505b90565b6000600154421015905090565b600260008273ffffffffffffffffffffffffffffffffffffffff1673ffffffffffffffffffffffffffffffffffffffff16815260200190815260200160002060010160009054906101000a900460ff1615610e92576040517f08c379a0000000000000000000000000000000000000000000000000000000008152600401610e89906114c7565b60405180910390fd5b6000600260008373ffffffffffffffffffffffffffffffffffffffff1673ffffffffffffffffffffffffffffffffffffffff1681526020019081526020016000206000015414610f17576040517f08c379a0000000000000000000000000000000000000000000000000000000008152600401610f0e90611858565b60405180910390fd5b6001600260008373ffffffffffffffffffffffffffffffffffffffff1673ffffffffffffffffffffffffffffffffffffffff168152602001908152602001600020600001819055508073ffffffffffffffffffffffffffffffffffffffff1660008054906101000a900473ffffffffffffffffffffffffffffffffffffffff1673ffffffffffffffffffffffffffffffffffffffff167fba3aa55379110c2dca41793e3f36f1646aafc638e9588b2e4bd5bd1b21aeb5c260405160405180910390a350565b600080fd5b600080fd5b6000819050919050565b610ff981610fe6565b811461100457600080fd5b50565b60008135905061101681610ff0565b92915050565b60006020828403121561103257611031610fdc565b5b600061104084828501611007565b91505092915050565b6000819050919050565b61105c81611049565b82525050565b61106b81610fe6565b82525050565b60006040820190506110866000830185611053565b6110936020830184611062565b9392505050565b60006020820190506110af6000830184611062565b92915050565b600073ffffffffffffffffffffffffffffffffffffffff82169050919050565b60006110e0826110b5565b9050919050565b6110f0816110d5565b82525050565b600060208201905061110b60008301846110e7565b92915050565b61111a816110d5565b811461112557600080fd5b50565b60008135905061113781611111565b92915050565b60006020828403121561115357611152610fdc565b5b600061116184828501611128565b91505092915050565b60008115159050919050565b61117f8161116a565b82525050565b600060808201905061119a6000830187611062565b6111a76020830186611176565b6111b460408301856110e7565b6111c16060830184611062565b95945050505050565b600080fd5b600080fd5b600080fd5b60008083601f8401126111ef576111ee6111ca565b5b8235905067ffffffffffffffff81111561120c5761120b6111cf565b5b602083019150836020820283011115611228576112276111d4565b5b9250929050565b6000806020838503121561124657611245610fdc565b5b600083013567ffffffffffffffff81111561126457611263610fe1565b5b611270858286016111d9565b92509250509250929050565b600081519050919050565b600082825260208201905092915050565b6000819050602082019050919050565b6112b181610fe6565b82525050565b60006112c383836112a8565b60208301905092915050565b6000602082019050919050565b60006112e78261127c565b6112f18185611287565b93506112fc83611298565b8060005b8381101561132d57815161131488826112b7565b975061131f836112cf565b925050600181019050611300565b5085935050505092915050565b6000602082019050818103600083015261135481846112dc565b905092915050565b60006020820190506113716000830184611053565b92915050565b600060208201905061138c6000830184611176565b92915050565b600082825260208201905092915050565b7f566f74696e6720706572696f642068617320656e646564000000000000000000600082015250565b60006113d9601783611392565b91506113e4826113a3565b602082019050919050565b60006020820190508181036000830152611408816113cc565b9050919050565b7f4e6f20726967687420746f20766f746500000000000000000000000000000000600082015250565b6000611445601083611392565b91506114508261140f565b602082019050919050565b6000602082019050818103600083015261147481611438565b9050919050565b7f416c726561647920766f74656400000000000000000000000000000000000000600082015250565b60006114b1600d83611392565b91506114bc8261147b565b602082019050919050565b600060208201905081810360008301526114e0816114a4565b9050919050565b7f496e76616c69642070726f706f73616c00000000000000000000000000000000600082015250565b600061151d601083611392565b9150611528826114e7565b602082019050919050565b6000602082019050818103600083015261154c81611510565b9050919050565b7f4e487b7100000000000000000000000000000000000000000000000000000000600052603260045260246000fd5b7f4e487b7100000000000000000000000000000000000000000000000000000000600052601160045260246000fd5b60006115bc82610fe6565b91506115c783610fe6565b92508282019050808211156115df576115de611582565b5b92915050565b7f53656c662d64656c65676174696f6e20646973616c6c6f776564000000000000600082015250565b600061161b601a83611392565b9150611626826115e5565b602082019050919050565b6000602082019050818103600083015261164a8161160e565b9050919050565b7f466f756e642064656c65676174696f6e206c6f6f700000000000000000000000600082015250565b6000611687601583611392565b915061169282611651565b602082019050919050565b600060208201905081810360008301526116b68161167a565b9050919050565b7f44656c656761746520686173206e6f2072696768740000000000000000000000600082015250565b60006116f3601583611392565b91506116fe826116bd565b602082019050919050565b60006020820190508181036000830152611722816116e6565b9050919050565b7f4e6f74206368616972706572736f6e0000000000000000000000000000000000600082015250565b600061175f600f83611392565b915061176a82611729565b602082019050919050565b6000602082019050818103600083015261178e81611752565b9050919050565b60006117a082610fe6565b91507fffffffffffffffffffffffffffffffffffffffffffffffffffffffffffffffff82036117d2576117d1611582565b5b600182019050919050565b7f4e487b7100000000000000000000000000000000000000000000000000000000600052604160045260246000fd5b7f416c726561647920686173207269676874000000000000000000000000000000600082015250565b6000611842601183611392565b915061184d8261180c565b602082019050919050565b6000602082019050818103600083015261187181611835565b905091905056fea2646970667358221220b12ee6ac0ba05099582ba5c48c570c8fd9882104c2cc04e3949a0669166025cf64736f6c63430008130033",
  "immutableReferences": {},
  "source": "// SPDX-License-Identifier: MIT\npragma solidity ^0.8.19;\n\n/// @title Voting with delegation, timed voting, and tie-handling\ncontract Ballot {\n    struct Voter {\n        uint weight;       // weight is accumulated by delegation\n        bool voted;        // if true, that person already voted\n        address delegate;  // person delegated to\n        uint vote;         // index of the voted proposal\n    }\n\n    struct Proposal {\n        bytes32 name;      // short name (up to 32 bytes)\n        uint voteCount;    // number of accumulated votes\n    }\n\n    event VoteCast(address indexed voter, uint indexed proposal, uint weight);\n    event RightGiven(address indexed chairperson, address indexed voter);\n    event Delegated(address indexed from, address indexed to);\n\n    address public chairperson;\n    uint public deadline;      // timestamp when voting ends\n\n    mapping(address => Voter) public voters;\n    Proposal[] public proposals;\n\n    constructor(bytes32[] memory proposalNames, uint _durationSeconds) {\n        chairperson = msg.sender;\n        voters[chairperson].weight = 1;\n\n        // voting period = now + _durationSeconds\n        deadline = block.timestamp + _durationSeconds;\n\n        for (uint i = 0; i < proposalNames.length; i++) {\n            proposals.push(\n                Proposal({name: proposalNames[i], voteCount: 0})\n            );\n        }\n    }\n\n    modifier onlyChair() {\n        require(msg.sender == chairperson, \"Not chairperson\");\n        _;\n    }\n\n    modifier votingActive() {\n        require(block.timestamp < deadline, \"Voting period has ended\");\n        _;\n    }\n\n    // INTERNAL helper so we can reuse the logic for single & batch\n    function _giveRightToVote(address voter) internal {\n        require(!voters[voter].voted, \"Already voted\");\n        require(voters[voter].weight == 0, \"Already has right\");\n\n        voters[voter].weight = 1;\n\n        emit RightGiven(chairperson, voter);\n    }\n\n    /// Give `voter` the right to vote on this ballot (single address).\n    /// May only be called by `chairperson`.\n    function giveRightToVote(address voter) external onlyChair {\n        _giveRightToVote(voter);\n    }\n\n    /// Batch version: give voting rights to many addresses at once.\n    /// Extra feature (not in original example).\n    function giveRightToMany(address[] calldata voterAddrs) external onlyChair {\n        for (uint i = 0; i < voterAddrs.length; i++) {\n            _giveRightToVote(voterAddrs[i]);\n        }\n    }\n\n\n    /// Delegate your vote to the voter `to`.\n    function delegate(address to) external votingActive {\n        Voter storage sender = voters[msg.sender];\n\n        require(sender.weight > 0, \"No right to vote\");\n        require(!sender.voted, \"Already voted\");\n        require(to != msg.sender, \"Self-delegation disallowed\");\n\n        // Forward the delegation as long as `to` also delegated.\n        while (voters[to].delegate != address(0)) {\n            to = voters[to].delegate;\n            // We found a loop in the delegation, not allowed.\n            require(to != msg.sender, \"Found delegation loop\");\n        }\n\n        Voter storage delegate_ = voters[to];\n\n        // Voters cannot delegate to accounts that cannot vote.\n        require(delegate_.weight >= 1, \"Delegate has no right\");\n\n        sender.voted = true;\n        sender.delegate = to;\n\n         emit Delegated(msg.sender, to);\n\n        if (delegate_.voted) {\n            // If the delegate already voted, add to that proposal\n            proposals[delegate_.vote].voteCount += sender.weight;\n        } else {\n            // If the delegate did not vote yet, add to her weight.\n            delegate_.weight += sender.weight;\n        }\n    }\n\n    /// Give your vote (including votes delegated to you)\n    /// to proposal `proposals[proposal].name`.\n    function vote(uint proposal) external votingActive {\n        Voter storage sender = voters[msg.sender];\n\n        require(sender.weight > 0, \"No right to vote\");\n        require(!sender.voted, \"Already voted\");\n        require(proposal < proposals.length, \"Invalid proposal\");\n\n        sender.voted = true;\n        sender.vote = proposal;\n        proposals[proposal].voteCount += sender.weight;\n\n        emit VoteCast(msg.sender, proposal, sender.weight);\n    }\n\n    /// Helper: has the voting period ended?\n    function hasEnded() external view returns (bool) {\n        return block.timestamp >= deadline;\n    }\n\n    /// @dev Returns all indices that share the highest voteCount.\n    /// If no votes have been cast, returns an empty array.\nfunction getWinners() public view returns (uint[] memory) {\n    uint winningVoteCount = 0;\n    uint numWinners = 0;\n\n    // First pass: find the highest voteCount and how many have it\n    for (uint p = 0; p < proposals.length; p++) {\n        uint vc = proposals[p].voteCount;\n        if (vc > winningVoteCount) {\n            winningVoteCount = vc;\n            numWinners = 1;\n        } else if (vc == winningVoteCount && vc > 0) {\n            numWinners += 1;\n        }\n    }\n\n    // If nobody has any votes yet, return empty array\n    if (winningVoteCount == 0) {\n        return new uint[](0);\n    }\n\n    // Second pass: collect all proposals that share the max voteCount\n    uint[] memory winners = new uint[](numWinners);\n    uint idx = 0;\n    for (uint p = 0; p < proposals.length; p++) {\n        if (proposals[p].voteCount == winningVoteCount) {\n            winners[idx] = p;\n            idx++;\n        }\n    }\n\n    return winners;\n}\n\n\n    /// @dev Keeps a single \"winningProposal\" for backward compatibility.\n    /// If there is a tie, this just returns the first winner index.\n    function winningProposal() public view returns (uint winner) {\n        uint[] memory winners = getWinners();\n        if (winners.length == 0) {\n            // No votes cast yet -> default to index 0\n            return 0;\n        }\n        return winners[0];\n    }\n\n    /// @dev Returns the name of one winning proposal (first one if tie).\n    function winnerName() external view returns (bytes32) {\n        uint[] memory winners = getWinners();\n        if (winners.length == 0) {\n            // No votes yet: return first proposal's name as a fallback\n            return proposals[0].name;\n        }\n        return proposals[winners[0]].name;\n    }\n}\n",
  "sourcePath": "/Users/sergio/repos/VCD/contracts/Ballot.sol",
  "compiler": {
    "name": "solc",
    "version": "0.8.19+commit.7dd6d404.Emscripten.clang"
  },
  "schemaVersion": "3.4.16",
  "updatedAt": "2025-12-04T07:53:05.099Z",
  "networkType": "ethereum",
  "devdoc": {
    "kind": "dev",
    "methods": {
      "getWinners()": {
        "details": "Returns all indices that share the highest voteCount. If no votes have been cast, returns an empty array."
      },
      "winnerName()": {
        "details": "Returns the name of one winning proposal (first one if tie)."
      },
      "winningProposal()": {
        "details": "Keeps a single \"winningProposal\" for backward compatibility. If there is a tie, this just returns the first winner index."
      }
    },
    "title": "Voting with delegation, timed voting, and tie-handling",
    "version": 1
  },
  "userdoc": {
    "kind": "user",
    "methods": {
      "delegate(address)": {
        "notice": "Delegate your vote to the voter `to`."
      },
      "giveRightToMany(address[])": {
        "notice": "Batch version: give voting rights to many addresses at once. Extra feature (not in original example)."
      },
      "giveRightToVote(address)": {
        "notice": "Give `voter` the right to vote on this ballot (single address). May only be called by `chairperson`."
      },
      "hasEnded()": {
        "notice": "Helper: has the voting period ended?"
      },
      "vote(uint256)": {
        "notice": "Give your vote (including votes delegated to you) to proposal `proposals[proposal].name`."
      }
    },
    "version": 1
  }
}