{
  "contractName": "Ballot",
  "abi": [
    {
      "inputs": [
        {
          "internalType": "bytes32[]",
          "name": "proposalNames",
          "type": "bytes32[]"
        }
      ],
      "stateMutability": "nonpayable",
      "type": "constructor"
    },
    {
      "inputs": [],
      "name": "chairperson",
      "outputs": [
        {
          "internalType": "address",
          "name": "",
          "type": "address"
        }
      ],
      "stateMutability": "view",
      "type": "function",
      "constant": true
    },
    {
      "inputs": [
        {
          "internalType": "uint256",
          "name": "",
          "type": "uint256"
        }
      ],
      "name": "proposals",
      "outputs": [
        {
          "internalType": "bytes32",
          "name": "name",
          "type": "bytes32"
        },
        {
          "internalType": "uint256",
          "name": "voteCount",
          "type": "uint256"
        }
      ],
      "stateMutability": "view",
      "type": "function",
      "constant": true
    },
    {
      "inputs": [
        {
          "internalType": "address",
          "name": "",
          "type": "address"
        }
      ],
      "name": "voters",
      "outputs": [
        {
          "internalType": "uint256",
          "name": "weight",
          "type": "uint256"
        },
        {
          "internalType": "bool",
          "name": "voted",
          "type": "bool"
        },
        {
          "internalType": "address",
          "name": "delegate",
          "type": "address"
        },
        {
          "internalType": "uint256",
          "name": "vote",
          "type": "uint256"
        }
      ],
      "stateMutability": "view",
      "type": "function",
      "constant": true
    },
    {
      "inputs": [
        {
          "internalType": "address",
          "name": "voter",
          "type": "address"
        }
      ],
      "name": "giveRightToVote",
      "outputs": [],
      "stateMutability": "nonpayable",
      "type": "function"
    },
    {
      "inputs": [
        {
          "internalType": "address[]",
          "name": "voterAddresses",
          "type": "address[]"
        }
      ],
      "name": "giveRightToVoteBatch",
      "outputs": [],
      "stateMutability": "nonpayable",
      "type": "function"
    },
    {
      "inputs": [
        {
          "internalType": "address",
          "name": "to",
          "type": "address"
        }
      ],
      "name": "delegate",
      "outputs": [],
      "stateMutability": "nonpayable",
      "type": "function"
    },
    {
      "inputs": [
        {
          "internalType": "uint256",
          "name": "proposal",
          "type": "uint256"
        }
      ],
      "name": "vote",
      "outputs": [],
      "stateMutability": "nonpayable",
      "type": "function"
    },
    {
      "inputs": [],
      "name": "winningProposal",
      "outputs": [
        {
          "internalType": "uint256",
          "name": "winningProposal_",
          "type": "uint256"
        }
      ],
      "stateMutability": "view",
      "type": "function",
      "constant": true
    },
    {
      "inputs": [],
      "name": "winnerName",
      "outputs": [
        {
          "internalType": "bytes32",
          "name": "winnerName_",
          "type": "bytes32"
        }
      ],
      "stateMutability": "view",
      "type": "function",
      "constant": true
    },
    {
      "inputs": [],
      "name": "winningProposals",
      "outputs": [
        {
          "internalType": "uint256[]",
          "name": "winnerIndices",
          "type": "uint256[]"
        },
        {
          "internalType": "uint256",
          "name": "winningVoteCount",
          "type": "uint256"
        }
      ],
      "stateMutability": "view",
      "type": "function",
      "constant": true
    },
    {
      "inputs": [],
      "name": "isTie",
      "outputs": [
        {
          "internalType": "bool",
          "name": "",
          "type": "bool"
        }
      ],
      "stateMutability": "view",
      "type": "function",
      "constant": true
    }
  ],
  "bytecode": "0x608060405234801562000010575f80fd5b5060405162001d0438038062001d0483398181016040528101906200003691906200036c565b5f8151116200007c576040517f08c379a0000000000000000000000000000000000000000000000000000000008152600401620000739062000419565b60405180910390fd5b335f806101000a81548173ffffffffffffffffffffffffffffffffffffffff021916908373ffffffffffffffffffffffffffffffffffffffff1602179055506001805f805f9054906101000a900473ffffffffffffffffffffffffffffffffffffffff1673ffffffffffffffffffffffffffffffffffffffff1673ffffffffffffffffffffffffffffffffffffffff1681526020019081526020015f205f01819055505f5b8151811015620001af57600260405180604001604052808484815181106200014e576200014d62000439565b5b602002602001015181526020015f815250908060018154018082558091505060019003905f5260205f2090600202015f909190919091505f820151815f01556020820151816001015550508080620001a6906200049c565b91505062000121565b5050620004e8565b5f604051905090565b5f80fd5b5f80fd5b5f80fd5b5f601f19601f8301169050919050565b7f4e487b71000000000000000000000000000000000000000000000000000000005f52604160045260245ffd5b6200021482620001cc565b810181811067ffffffffffffffff82111715620002365762000235620001dc565b5b80604052505050565b5f6200024a620001b7565b905062000258828262000209565b919050565b5f67ffffffffffffffff8211156200027a5762000279620001dc565b5b602082029050602081019050919050565b5f80fd5b5f819050919050565b620002a3816200028f565b8114620002ae575f80fd5b50565b5f81519050620002c18162000298565b92915050565b5f620002dd620002d7846200025d565b6200023f565b905080838252602082019050602084028301858111156200030357620003026200028b565b5b835b818110156200033057806200031b8882620002b1565b84526020840193505060208101905062000305565b5050509392505050565b5f82601f830112620003515762000350620001c8565b5b815162000363848260208601620002c7565b91505092915050565b5f60208284031215620003845762000383620001c0565b5b5f82015167ffffffffffffffff811115620003a457620003a3620001c4565b5b620003b2848285016200033a565b91505092915050565b5f82825260208201905092915050565b7f4e656564206174206c65617374206f6e652070726f706f73616c0000000000005f82015250565b5f62000401601a83620003bb565b91506200040e82620003cb565b602082019050919050565b5f6020820190508181035f8301526200043281620003f3565b9050919050565b7f4e487b71000000000000000000000000000000000000000000000000000000005f52603260045260245ffd5b7f4e487b71000000000000000000000000000000000000000000000000000000005f52601160045260245ffd5b5f819050919050565b5f620004a88262000493565b91507fffffffffffffffffffffffffffffffffffffffffffffffffffffffffffffffff8203620004dd57620004dc62000466565b5b600182019050919050565b61180e80620004f65f395ff3fe608060405234801561000f575f80fd5b50600436106100a7575f3560e01c8063609ff1bd1161006f578063609ff1bd1461014e5780639e7b8d611461016c578063a3ec138d14610188578063b1e25148146101bb578063dfe53b08146101d9578063e2ba53f0146101f8576100a7565b80630121b93f146100ab578063013cf08b146100c757806317d56821146100f85780632e4176cf146101145780635c19a95c14610132575b5f80fd5b6100c560048036038101906100c09190610ef0565b610216565b005b6100e160048036038101906100dc9190610ef0565b610398565b6040516100ef929190610f42565b60405180910390f35b610112600480360381019061010d9190610fca565b6103c7565b005b61011c61054c565b6040516101299190611054565b60405180910390f35b61014c60048036038101906101479190611097565b61056f565b005b610156610980565b60405161016391906110c2565b60405180910390f35b61018660048036038101906101819190611097565b610a01565b005b6101a2600480360381019061019d9190611097565b610a9a565b6040516101b294939291906110f5565b60405180910390f35b6101c3610af2565b6040516101d09190611138565b60405180910390f35b6101e1610b8a565b6040516101ef929190611208565b60405180910390f35b610200610d30565b60405161020d9190611236565b60405180910390f35b5f60015f3373ffffffffffffffffffffffffffffffffffffffff1673ffffffffffffffffffffffffffffffffffffffff1681526020019081526020015f2090505f815f01540361029b576040517f08c379a0000000000000000000000000000000000000000000000000000000008152600401610292906112a9565b60405180910390fd5b806001015f9054906101000a900460ff16156102ec576040517f08c379a00000000000000000000000000000000000000000000000000000000081526004016102e390611311565b60405180910390fd5b6002805490508210610333576040517f08c379a000000000000000000000000000000000000000000000000000000000815260040161032a90611379565b60405180910390fd5b6001816001015f6101000a81548160ff021916908315150217905550818160020181905550805f0154600283815481106103705761036f611397565b5b905f5260205f2090600202016001015f82825461038d91906113f1565b925050819055505050565b600281815481106103a7575f80fd5b905f5260205f2090600202015f91509050805f0154908060010154905082565b5f8054906101000a900473ffffffffffffffffffffffffffffffffffffffff1673ffffffffffffffffffffffffffffffffffffffff163373ffffffffffffffffffffffffffffffffffffffff1614610454576040517f08c379a000000000000000000000000000000000000000000000000000000000815260040161044b9061146e565b60405180910390fd5b5f5b82829050811015610547575f83838381811061047557610474611397565b5b905060200201602081019061048a9190611097565b905060015f8273ffffffffffffffffffffffffffffffffffffffff1673ffffffffffffffffffffffffffffffffffffffff1681526020019081526020015f206001015f9054906101000a900460ff1615801561052457505f60015f8373ffffffffffffffffffffffffffffffffffffffff1673ffffffffffffffffffffffffffffffffffffffff1681526020019081526020015f205f0154145b156105335761053281610d60565b5b50808061053f9061148c565b915050610456565b505050565b5f8054906101000a900473ffffffffffffffffffffffffffffffffffffffff1681565b5f60015f3373ffffffffffffffffffffffffffffffffffffffff1673ffffffffffffffffffffffffffffffffffffffff1681526020019081526020015f2090505f815f0154036105f4576040517f08c379a00000000000000000000000000000000000000000000000000000000081526004016105eb9061151d565b60405180910390fd5b806001015f9054906101000a900460ff1615610645576040517f08c379a000000000000000000000000000000000000000000000000000000000815260040161063c90611585565b60405180910390fd5b3373ffffffffffffffffffffffffffffffffffffffff168273ffffffffffffffffffffffffffffffffffffffff16036106b3576040517f08c379a00000000000000000000000000000000000000000000000000000000081526004016106aa906115ed565b60405180910390fd5b5b5f73ffffffffffffffffffffffffffffffffffffffff1660015f8473ffffffffffffffffffffffffffffffffffffffff1673ffffffffffffffffffffffffffffffffffffffff1681526020019081526020015f2060010160019054906101000a900473ffffffffffffffffffffffffffffffffffffffff1673ffffffffffffffffffffffffffffffffffffffff161461081d5760015f8373ffffffffffffffffffffffffffffffffffffffff1673ffffffffffffffffffffffffffffffffffffffff1681526020019081526020015f2060010160019054906101000a900473ffffffffffffffffffffffffffffffffffffffff1691503373ffffffffffffffffffffffffffffffffffffffff168273ffffffffffffffffffffffffffffffffffffffff1603610818576040517f08c379a000000000000000000000000000000000000000000000000000000000815260040161080f90611655565b60405180910390fd5b6106b4565b5f60015f8473ffffffffffffffffffffffffffffffffffffffff1673ffffffffffffffffffffffffffffffffffffffff1681526020019081526020015f2090506001815f015410156108a4576040517f08c379a000000000000000000000000000000000000000000000000000000000815260040161089b906116bd565b60405180910390fd5b6001826001015f6101000a81548160ff021916908315150217905550828260010160016101000a81548173ffffffffffffffffffffffffffffffffffffffff021916908373ffffffffffffffffffffffffffffffffffffffff160217905550806001015f9054906101000a900460ff161561095e57815f0154600282600201548154811061093557610934611397565b5b905f5260205f2090600202016001015f82825461095291906113f1565b9250508190555061097b565b815f0154815f015f82825461097391906113f1565b925050819055505b505050565b5f805f90505f5b6002805490508110156109fc5781600282815481106109a9576109a8611397565b5b905f5260205f2090600202016001015411156109e957600281815481106109d3576109d2611397565b5b905f5260205f2090600202016001015491508092505b80806109f49061148c565b915050610987565b505090565b5f8054906101000a900473ffffffffffffffffffffffffffffffffffffffff1673ffffffffffffffffffffffffffffffffffffffff163373ffffffffffffffffffffffffffffffffffffffff1614610a8e576040517f08c379a0000000000000000000000000000000000000000000000000000000008152600401610a859061146e565b60405180910390fd5b610a9781610d60565b50565b6001602052805f5260405f205f91509050805f015490806001015f9054906101000a900460ff16908060010160019054906101000a900473ffffffffffffffffffffffffffffffffffffffff16908060020154905084565b5f80610afc610b8a565b9150505f8103610b0f575f915050610b87565b5f805b600280549050811015610b80578260028281548110610b3457610b33611397565b5b905f5260205f2090600202016001015403610b6d578180610b549061148c565b9250506001821115610b6c5760019350505050610b87565b5b8080610b789061148c565b915050610b12565b505f925050505b90565b60605f805f90505b600280549050811015610c04578160028281548110610bb457610bb3611397565b5b905f5260205f209060020201600101541115610bf15760028181548110610bde57610bdd611397565b5b905f5260205f2090600202016001015491505b8080610bfc9061148c565b915050610b92565b505f805b600280549050811015610c61578260028281548110610c2a57610c29611397565b5b905f5260205f2090600202016001015403610c4e578180610c4a9061148c565b9250505b8080610c599061148c565b915050610c08565b508067ffffffffffffffff811115610c7c57610c7b6116db565b5b604051908082528060200260200182016040528015610caa5781602001602082028036833780820191505090505b5092505f805b600280549050811015610d29578360028281548110610cd257610cd1611397565b5b905f5260205f2090600202016001015403610d165780858381518110610cfb57610cfa611397565b5b6020026020010181815250508180610d129061148c565b9250505b8080610d219061148c565b915050610cb0565b5050509091565b5f6002610d3b610980565b81548110610d4c57610d4b611397565b5b905f5260205f2090600202015f0154905090565b60015f8273ffffffffffffffffffffffffffffffffffffffff1673ffffffffffffffffffffffffffffffffffffffff1681526020019081526020015f206001015f9054906101000a900460ff1615610ded576040517f08c379a0000000000000000000000000000000000000000000000000000000008152600401610de490611752565b60405180910390fd5b5f60015f8373ffffffffffffffffffffffffffffffffffffffff1673ffffffffffffffffffffffffffffffffffffffff1681526020019081526020015f205f015414610e6e576040517f08c379a0000000000000000000000000000000000000000000000000000000008152600401610e65906117ba565b60405180910390fd5b6001805f8373ffffffffffffffffffffffffffffffffffffffff1673ffffffffffffffffffffffffffffffffffffffff1681526020019081526020015f205f018190555050565b5f80fd5b5f80fd5b5f819050919050565b610ecf81610ebd565b8114610ed9575f80fd5b50565b5f81359050610eea81610ec6565b92915050565b5f60208284031215610f0557610f04610eb5565b5b5f610f1284828501610edc565b91505092915050565b5f819050919050565b610f2d81610f1b565b82525050565b610f3c81610ebd565b82525050565b5f604082019050610f555f830185610f24565b610f626020830184610f33565b9392505050565b5f80fd5b5f80fd5b5f80fd5b5f8083601f840112610f8a57610f89610f69565b5b8235905067ffffffffffffffff811115610fa757610fa6610f6d565b5b602083019150836020820283011115610fc357610fc2610f71565b5b9250929050565b5f8060208385031215610fe057610fdf610eb5565b5b5f83013567ffffffffffffffff811115610ffd57610ffc610eb9565b5b61100985828601610f75565b92509250509250929050565b5f73ffffffffffffffffffffffffffffffffffffffff82169050919050565b5f61103e82611015565b9050919050565b61104e81611034565b82525050565b5f6020820190506110675f830184611045565b92915050565b61107681611034565b8114611080575f80fd5b50565b5f813590506110918161106d565b92915050565b5f602082840312156110ac576110ab610eb5565b5b5f6110b984828501611083565b91505092915050565b5f6020820190506110d55f830184610f33565b92915050565b5f8115159050919050565b6110ef816110db565b82525050565b5f6080820190506111085f830187610f33565b61111560208301866110e6565b6111226040830185611045565b61112f6060830184610f33565b95945050505050565b5f60208201905061114b5f8301846110e6565b92915050565b5f81519050919050565b5f82825260208201905092915050565b5f819050602082019050919050565b61118381610ebd565b82525050565b5f611194838361117a565b60208301905092915050565b5f602082019050919050565b5f6111b682611151565b6111c0818561115b565b93506111cb8361116b565b805f5b838110156111fb5781516111e28882611189565b97506111ed836111a0565b9250506001810190506111ce565b5085935050505092915050565b5f6040820190508181035f83015261122081856111ac565b905061122f6020830184610f33565b9392505050565b5f6020820190506112495f830184610f24565b92915050565b5f82825260208201905092915050565b7f486173206e6f20726967687420746f20766f74650000000000000000000000005f82015250565b5f61129360148361124f565b915061129e8261125f565b602082019050919050565b5f6020820190508181035f8301526112c081611287565b9050919050565b7f416c726561647920766f7465642e0000000000000000000000000000000000005f82015250565b5f6112fb600e8361124f565b9150611306826112c7565b602082019050919050565b5f6020820190508181035f830152611328816112ef565b9050919050565b7f496e76616c69642070726f706f73616c20696e646578000000000000000000005f82015250565b5f61136360168361124f565b915061136e8261132f565b602082019050919050565b5f6020820190508181035f83015261139081611357565b9050919050565b7f4e487b71000000000000000000000000000000000000000000000000000000005f52603260045260245ffd5b7f4e487b71000000000000000000000000000000000000000000000000000000005f52601160045260245ffd5b5f6113fb82610ebd565b915061140683610ebd565b925082820190508082111561141e5761141d6113c4565b5b92915050565b7f4f6e6c79206368616972706572736f6e000000000000000000000000000000005f82015250565b5f61145860108361124f565b915061146382611424565b602082019050919050565b5f6020820190508181035f8301526114858161144c565b9050919050565b5f61149682610ebd565b91507fffffffffffffffffffffffffffffffffffffffffffffffffffffffffffffffff82036114c8576114c76113c4565b5b600182019050919050565b7f596f752068617665206e6f20726967687420746f20766f7465000000000000005f82015250565b5f61150760198361124f565b9150611512826114d3565b602082019050919050565b5f6020820190508181035f830152611534816114fb565b9050919050565b7f596f7520616c726561647920766f7465642e00000000000000000000000000005f82015250565b5f61156f60128361124f565b915061157a8261153b565b602082019050919050565b5f6020820190508181035f83015261159c81611563565b9050919050565b7f53656c662d64656c65676174696f6e20646973616c6c6f7765642e00000000005f82015250565b5f6115d7601b8361124f565b91506115e2826115a3565b602082019050919050565b5f6020820190508181035f830152611604816115cb565b9050919050565b7f466f756e64206c6f6f7020696e2064656c65676174696f6e2e000000000000005f82015250565b5f61163f60198361124f565b915061164a8261160b565b602082019050919050565b5f6020820190508181035f83015261166c81611633565b9050919050565b7f44656c656761746520686173206e6f20726967687420746f20766f74650000005f82015250565b5f6116a7601d8361124f565b91506116b282611673565b602082019050919050565b5f6020820190508181035f8301526116d48161169b565b9050919050565b7f4e487b71000000000000000000000000000000000000000000000000000000005f52604160045260245ffd5b7f54686520766f74657220616c726561647920766f7465642e00000000000000005f82015250565b5f61173c60188361124f565b915061174782611708565b602082019050919050565b5f6020820190508181035f83015261176981611730565b9050919050565b7f566f74657220616c7265616479206861732072696768742e00000000000000005f82015250565b5f6117a460188361124f565b91506117af82611770565b602082019050919050565b5f6020820190508181035f8301526117d181611798565b905091905056fea264697066735822122075fabe75b059138fc04750a641d7919a3477340249ab31db18d4a717be11ccf764736f6c63430008150033",
  "immutableReferences": {},
  "source": "// SPDX-License-Identifier: GPL-3.0\npragma solidity ^0.8.21;\n\n/// @title Voting with delegation + batch assignment + tie detection\ncontract Ballot {\n    struct Voter {\n        uint256 weight;    // weight is accumulated by delegation\n        bool voted;        // if true, that person already voted\n        address delegate;  // person delegated to\n        uint256 vote;      // index of the voted proposal\n    }\n\n    struct Proposal {\n        bytes32 name;      // short name (up to 32 bytes)\n        uint256 voteCount; // number of accumulated votes\n    }\n\n    address public chairperson;\n    mapping(address => Voter) public voters;\n    Proposal[] public proposals;\n\n    // -------- Modifiers --------\n    modifier onlyChairperson() {\n        require(msg.sender == chairperson, \"Only chairperson\");\n        _;\n    }\n\n    /// Create a new ballot to choose one of `proposalNames`.\n    constructor(bytes32[] memory proposalNames) {\n        require(proposalNames.length > 0, \"Need at least one proposal\");\n        chairperson = msg.sender;\n        voters[chairperson].weight = 1;\n\n        for (uint256 i = 0; i < proposalNames.length; i++) {\n            proposals.push(\n                Proposal({\n                    name: proposalNames[i],\n                    voteCount: 0\n                })\n            );\n        }\n    }\n\n    // -------- Voting rights --------\n\n    /// Internal helper to give a single voter the right to vote.\n    function _giveRightToVote(address voter) internal {\n        require(!voters[voter].voted, \"The voter already voted.\");\n        require(voters[voter].weight == 0, \"Voter already has right.\");\n        voters[voter].weight = 1;\n    }\n\n    /// Give `voter` the right to vote on this ballot.\n    /// May only be called by `chairperson`.\n    function giveRightToVote(address voter) external onlyChairperson {\n        _giveRightToVote(voter);\n    }\n\n    /// Batch version: give multiple voters the right to vote in a single tx.\n    /// Addresses that already have rights or have voted are skipped.\n    function giveRightToVoteBatch(address[] calldata voterAddresses)\n        external\n        onlyChairperson\n    {\n        for (uint256 i = 0; i < voterAddresses.length; i++) {\n            address voter = voterAddresses[i];\n\n            // Only attempt if they currently have no weight and have not voted\n            if (!voters[voter].voted && voters[voter].weight == 0) {\n                _giveRightToVote(voter);\n            }\n        }\n    }\n\n    // -------- Delegation --------\n\n    /// Delegate your vote to the voter `to`.\n    function delegate(address to) external {\n        Voter storage sender = voters[msg.sender];\n        require(sender.weight != 0, \"You have no right to vote\");\n        require(!sender.voted, \"You already voted.\");\n        require(to != msg.sender, \"Self-delegation disallowed.\");\n\n        // Forward the delegation as long as `to` has delegated.\n        while (voters[to].delegate != address(0)) {\n            to = voters[to].delegate;\n\n            // We found a loop in the delegation, not allowed.\n            require(to != msg.sender, \"Found loop in delegation.\");\n        }\n\n        Voter storage delegate_ = voters[to];\n        require(delegate_.weight >= 1, \"Delegate has no right to vote\");\n\n        sender.voted = true;\n        sender.delegate = to;\n\n        if (delegate_.voted) {\n            proposals[delegate_.vote].voteCount += sender.weight;\n        } else {\n            delegate_.weight += sender.weight;\n        }\n    }\n\n    // -------- Voting --------\n\n    /// Give your vote (including votes delegated to you)\n    /// to proposal `proposal`.\n    function vote(uint256 proposal) external {\n        Voter storage sender = voters[msg.sender];\n        require(sender.weight != 0, \"Has no right to vote\");\n        require(!sender.voted, \"Already voted.\");\n        require(proposal < proposals.length, \"Invalid proposal index\");\n\n        sender.voted = true;\n        sender.vote = proposal;\n        proposals[proposal].voteCount += sender.weight;\n    }\n\n    // -------- Result calculation --------\n\n    /// Original behavior: returns a single winning proposal index\n    /// (the first one with the highest voteCount).\n    function winningProposal() public view returns (uint256 winningProposal_) {\n        uint256 winningVoteCount = 0;\n        for (uint256 p = 0; p < proposals.length; p++) {\n            if (proposals[p].voteCount > winningVoteCount) {\n                winningVoteCount = proposals[p].voteCount;\n                winningProposal_ = p;\n            }\n        }\n    }\n\n    /// Returns the name of the single winner (kept for compatibility).\n    function winnerName() external view returns (bytes32 winnerName_) {\n        winnerName_ = proposals[winningProposal()].name;\n    }\n\n    /// New: returns all proposal indices that share the highest vote count.\n    function winningProposals()\n        public\n        view\n        returns (uint256[] memory winnerIndices, uint256 winningVoteCount)\n    {\n        // 1) Find max vote count\n        for (uint256 p = 0; p < proposals.length; p++) {\n            if (proposals[p].voteCount > winningVoteCount) {\n                winningVoteCount = proposals[p].voteCount;\n            }\n        }\n\n        // 2) Count how many proposals have that max count\n        uint256 count = 0;\n        for (uint256 p = 0; p < proposals.length; p++) {\n            if (proposals[p].voteCount == winningVoteCount) {\n                count++;\n            }\n        }\n\n        // 3) Fill array with all winner indices\n        winnerIndices = new uint256[](count);\n        uint256 idx = 0;\n        for (uint256 p = 0; p < proposals.length; p++) {\n            if (proposals[p].voteCount == winningVoteCount) {\n                winnerIndices[idx] = p;\n                idx++;\n            }\n        }\n    }\n\n    /// Convenience: returns true if there is a tie between 2+ proposals.\n    function isTie() external view returns (bool) {\n        (, uint256 winningVoteCount) = winningProposals();\n\n        if (winningVoteCount == 0) {\n            // If nobody voted, treat as \"no tie\" (define differently if you want)\n            return false;\n        }\n\n        uint256 count = 0;\n        for (uint256 p = 0; p < proposals.length; p++) {\n            if (proposals[p].voteCount == winningVoteCount) {\n                count++;\n                if (count > 1) {\n                    return true;\n                }\n            }\n        }\n        return false;\n    }\n}\n",
  "sourcePath": "/Users/sergio/repos/VCD/contracts/Ballot.sol",
  "compiler": {
    "name": "solc",
    "version": "0.8.21+commit.d9974bed.Emscripten.clang"
  },
  "schemaVersion": "3.4.16",
  "updatedAt": "2025-11-24T05:44:41.956Z",
  "networkType": "ethereum",
  "devdoc": {
    "kind": "dev",
    "methods": {},
    "title": "Voting with delegation + batch assignment + tie detection",
    "version": 1
  },
  "userdoc": {
    "kind": "user",
    "methods": {
      "constructor": {
        "notice": "Create a new ballot to choose one of `proposalNames`."
      },
      "delegate(address)": {
        "notice": "Delegate your vote to the voter `to`."
      },
      "giveRightToVote(address)": {
        "notice": "Give `voter` the right to vote on this ballot. May only be called by `chairperson`."
      },
      "giveRightToVoteBatch(address[])": {
        "notice": "Batch version: give multiple voters the right to vote in a single tx. Addresses that already have rights or have voted are skipped."
      },
      "isTie()": {
        "notice": "Convenience: returns true if there is a tie between 2+ proposals."
      },
      "vote(uint256)": {
        "notice": "Give your vote (including votes delegated to you) to proposal `proposal`."
      },
      "winnerName()": {
        "notice": "Returns the name of the single winner (kept for compatibility)."
      },
      "winningProposal()": {
        "notice": "Original behavior: returns a single winning proposal index (the first one with the highest voteCount)."
      },
      "winningProposals()": {
        "notice": "New: returns all proposal indices that share the highest vote count."
      }
    },
    "version": 1
  }
}